:020000041000EA
:1000000000B5324B212058609868022188439860DF
:10001000D860186158612E4B002199600221596106
:100020000121F02299502B49196001219960352056
:1000300000F044F80222904214D00621196600F024
:1000400034F8196E01211966002018661A6600F04E
:100050002CF8196E196E196E052000F02FF8012189
:100060000842F9D1002199601B49196000215960AB
:100070001A491B48016001219960EB211966A021F2
:10008000196600F012F800219960164914480160C1
:100090000121996001BC002800D000471248134993
:1000A000086003C880F30888084703B5996A0420EC
:1000B0000142FBD001200142F8D103BD02B5186610
:1000C0001866FFF7F2FF186E186E02BD00000240BE
:1000D000000000180000070000035F00212200005C
:1000E000F4000018222000A00001001008ED00E03C
:1000F00000000000000000000000000074B24E7A12
:1001000000200420F7010010C3010010C5010010F9
:10011000C1010010C1010010C1010010C101001097
:10012000C1010010C1010010C1010010C701001081
:10013000C1010010C1010010C9010010CB01001065
:10014000CD010010CD010010CD010010CD01001037
:10015000CD010010CD010010CD010010CD01001027
:10016000CD010010CD010010CD010010CD01001017
:10017000CD010010CD010010CD010010CD01001007
:10018000CD010010CD010010CD010010CD010010F7
:10019000CD010010CD010010CD010010CD010010E7
:1001A000CD010010CD010010CD010010CD010010D7
:1001B000CD010010CD010010CD010010CD010010C7
:1001C00000BE00BE00BE00BE00BE00BE00F04BF888
:1001D000103800BEF2EB887110530510345305102F
:1001E0003402001090A31AE700202149086006C8D5
:1001F00081F3088810471F48006800282FD10DA4FC
:100200000ECC002902D000F012F8F9E71A491B4A77
:10021000002000E001C19142FCD1194988471949E9
:1002200088471949884700BEFDE701C901C29A42C3
:10023000FBD3704734530510C0000020541D00202C
:10024000C86F05100000042000000420C86F0510CE
:1002500000100420001004200000000070470B482C
:1002600007F074FE0047EFF30580C0B2704700004E
:1002700008ED00E0000000D0581D0020EC490020EF
:10028000016400107107001015650010575600003A
:1002900006005250ABB36053B0AB0410060052508E
:1002A000861C0302C0AB0410060052505422A29DCB
:1002B000CCAB041005005250DE65F468C86F051021
:1002C000F8B5C0460448054B10B5834203D0044B33
:1002D000002B00D0984710BD541D0020541D002055
:1002E0000000000006480749091A8910CB0F591869
:1002F00010B5491003D0044B002B00D0984710BD17
:10030000541D0020541D00200000000010B5074CB3
:100310002378002B09D1FFF7D5FF054B002B02D026
:10032000044800E000BF0123237010BD581E0020C8
:100330000000000060EF0310054B10B5002B03D048
:100340000449054800E000BFFFF7CCFF10BDC046E0
:10035000000000005C1E002060EF031010B50A488A
:1003600009F03CF8FA20800005F09CFC06F004FD42
:10037000002804D100210A2006F0F4FCFEE7FA2050
:10038000800005F08FFCF5E7FCEF031010B5172097
:1003900004F0CAFED0231B06802212045A625A615E
:1003A00010BD000010B50221002004F08BFE0221D8
:1003B000012004F087FE00220121012004F09AFEB2
:1003C000E121214C4902200004F054FFE36A10228D
:1003D0009A431E4980235B010B431A60642005F099
:1003E00061FC192004F0A0FED024240680239B0485
:1003F00063626361022004F097FE032004F094FE20
:100400000423A3620433A36200220121022004F02A
:1004100071FE00220121032004F06CFE1C2004F078
:1004200083FE80235B05636263611A2004F07CFE17
:100430008023DB0463626361142004F075FE802373
:100440005B036362636110BD004003402C400340C6
:1004500010B500280DD105210A2004F033FE0A2032
:1004600004F062FED0231B068022D2005A629A61F9
:1004700010BD04210A2004F025FE064B064A5A67E7
:10048000064B1A68FA23DB0053401B041B0C044A7A
:100490001360EDE7000005409F0F0000700005406D
:1004A0007010054010B51349134809F073FA012183
:1004B0000E2004F007FE01210F2004F003FE0B20A4
:1004C00004F032FED024240680231B0163616362A2
:1004D0000C2004F029FE80235B01636163620D2020
:1004E00004F022FE80239B016361636200F0D4FA72
:1004F00010BDC046005A62020000044030B58DB005
:10050000FA208000002101F0CFF82A236B4400225A
:100510001A700093FA2292000023614801F0B8F8A3
:10052000041E00D1A1E02B236B4400221A7001931A
:100530005C4B0093FA22920000235B4800F01AFF04
:100540000BAB00221A700193564B0093FA229200D3
:100550000023554800F00EFF2D236B4400221A7033
:100560000193504B0093FA22920000234E4800F072
:1005700001FF2E236B4400221A700193494B009314
:10058000FA2292000023484800F0F4FE04A802F08A
:100590001FFC059B002B03D1444808F01FFF5AE0C5
:1005A0000499434808F04AFF0023424A2CE0424B9A
:1005B00002201B5E8B4210D00E236B44197000206A
:1005C000190000281AD13D4B9B699B06FBD40C787F
:1005D0003A4B1C6001300131F3E70F2068440D23D2
:1005E00003700024002CE7D1344B9B699B06FBD49D
:1005F0000578324B1D6001340130F3E713780D3B71
:1006000059424B41DBB201321178002912D0002B44
:10061000CDD00D236B441970002019000028EDD1B6
:10062000264B9B699B06FBD40C78244B1C60013045
:100630000131F3E72F236B4400221A700093FA2252
:1006400092000023184801F023F8041E04D11C482E
:1006500008F0C4FE00E00024049806AB984201D0E4
:100660000AF0C0F920000DB030BD164808F0B6FE03
:10067000F8E70400049806AB984201D00AF0B2F9FA
:10068000200009F0DDFF104808F0A8FE00E0F8E7C0
:100690000AF012F80024E5E70AF00EF809F0AEF9C6
:1006A00068EF031064EF0310A41504106CEF03103F
:1006B0008CEF031060EF0310E04700200080034040
:1006C000A8EF0310C4EF0310E0EF031010B50221F0
:1006D000042004F0F7FC0221052004F0F3FC0221C1
:1006E000062004F0EFFC0221072004F0EBFCE121DE
:1006F00049021B4804F0BEFD00220121052004F040
:10070000F9FC00220121062004F0F4FC0021144829
:1007100004F09CFD124A136BC02000029843802312
:100720005B01104919430860D16A602048406E217E
:1007300001400D4803431960D16A10228A431A60B0
:10074000012010BD09F07CFF084808F047FE09F0C1
:10075000B3FF0020F5E709F0AFFF09F04FF9C046FD
:1007600000800340308003402C80034014F00310CD
:1007700070B5FFF70BFE08F08DFF08F06BFE6420EC
:1007800005F090FAFFF70EFE09F02AF8FFF78AFE4F
:100790000020FFF75DFEFA20400005F083FAD02428
:1007A00024068025AD04A561264808F017FEA56142
:1007B00080235B05A3618023DB04A36180235B03AB
:1007C000A361FFF783FF00282CD0D0231B068022D3
:1007D00092045A61FA20800005F064FA1A4B9B6972
:1007E000DB0621D5D0231B06802292049A61FFF7F5
:1007F00085FE00281ED002F083FC00281CD0D023E8
:100800001B06802292045A6100F0BEFB00F0FEFB42
:10081000802212010D490E4808F084FF02F0B8FF53
:10082000002070BDFFF79AFD0A4808F0D7FD01F0DF
:10083000C5F9D7E7FFF792FD074808F0CFFDFFF7AE
:100840008DFDC0462CF00310004003400000042042
:10085000254F001064F0031088F00310D208D20274
:100860009B085B01D21892B2C90851184000014B95
:1008700019527047DC450020F8B5DE4657464E4613
:100880004546E0B506008A460A9D1700514281425E
:1008900048DAA0214900884244DC9B465B4253452C
:1008A00040DA5346EF2B3DDC002B01DBD1460CE058
:1008B0005A43AD1A0023994607E0AD1B00240EE011
:1008C0001C1B2D1901239C46E1445B4653444B45B8
:1008D00028DD4B46EF2B25DC002EEEDB3400012318
:1008E000984607E02B785B00114A985A00F05CF9B3
:1008F00001350134BB19A342E4DD4022FF329442AA
:10090000DEDC2B78002B0AD04346002BEAD04B4686
:1009100099B2A0B200F0EEFA00239846E2E7012374
:100920009846E5E73CBC90469946A246AB46F8BDE2
:10093000DC450020F0B5DE4657464E464546E0B55C
:1009400083B006008A461F000CAB1B780730A3213A
:10095000490088427CD85146073179DB5146EF295E
:1009600076DC00290CDBDB003D495B18D0465200E9
:100970003C49525A9346002F58DB7F007F5A55E07E
:10098000DB005B1A36495B1800218846EFE77342AB
:100990009C40E4B2002556E04B46002B13D158464C
:1009A00000F002F96400E4B2013533000833AB42D1
:1009B00038DD4023FF339D4234DC63B2002BEBDB98
:1009C00001239946EEE7434699B2A8B200F092FAA5
:1009D00000239946E3E7434699B2A8B200F08AFAA9
:1009E000214908E05B461B0A0B705B464B700231E5
:1009F0006400E4B2013533000833AB420BDD402321
:100A0000FF339D4207DC63B2002BEBDB3B120B7024
:100A10004F700231ECE7144B994203D01800C91A09
:100A200000F0EEF801239C46E044019B5246083258
:100A300042450DDD4246EF2A0ADC5A1C01921C7821
:100A4000002EA4DB3500002FC5DA01239946ACE760
:100A500003B03CBC90469946A246AB46F0BDC046AA
:100A6000ACF00310DC450020943D0020F0B585B0CB
:100A700005000F00160003930A9C08E00134009360
:100A8000039B320039002800FFF754FF0835237814
:100A9000002BF3D105B0F0BD10B500240EE0E0B29C
:100AA0006210A3105B42DBB201210A405242D2B273
:100AB00001404942C9B2FFF7D1FE0134072CEEDDF7
:100AC00000240EE0E0B26210A310DB01DBB20121D2
:100AD0000A40D2010140C9010830C0B2FFF7BEFE92
:100AE0000134072CEEDD102406E0E0B2FF23FF22E4
:100AF000FF21FFF7B3FE0134FF2CF6DD00F0A4F870
:100B0000002000F001FA10BD30B583B06B46D91D4E
:100B10000870C046C046C046D024240680235B012E
:100B2000A361C046C046C046C046C046C0468025F8
:100B30002D01A561C046C046C046012205483EF0D1
:100B4000D7F9C046C046C0466561C046C046C046EB
:100B500003B030BD0000044030B583B06B46D91DF2
:100B60000870C046C046C046D024240680235B01DE
:100B70006361C046C046C046C046C046C0468025E8
:100B80002D01A561C046C046C046012205483EF081
:100B9000AFF9C046C046C0466561C046C046C046C3
:100BA00003B030BD0000044030B583B0C046C0463D
:100BB000C046D024240680235B016361C046C04642
:100BC000C046C046C046C04680252D01A561C0462E
:100BD000C046C0460302000A18436B46991D0880B0
:100BE000022206483EF084F9C046C046C046656110
:100BF000C046C046C04603B030BDC04600000440F9
:100C000070B50A00C046C046C046D02424068023E2
:100C10005B016361C046C046C046C046C046C04690
:100C200080252D01A561C046C046C046010005488B
:100C30003EF05EF9C046C046C0466561C046C0464B
:100C4000C04670BD0000044070B5C046C046C046F6
:100C5000D024240680231B016361C046C046C046E1
:100C6000C046C046C04680235B016361C046C046A3
:100C7000C046C046C046C0468025AD016561C0463D
:100C8000C046C046012005F00DF8C046C046C0462B
:100C9000A561C046C046C0460A2005F003F8C0461C
:100CA000C046C0466561C046C046C046782004F0D4
:100CB000F9FFCB20FFF728FF3920FFF74DFF2C204D
:100CC000FFF74AFF0020FFF747FF3420FFF744FFFC
:100CD0000220FFF741FFCF20FFF716FF0020FFF7AC
:100CE0003BFFC120FFF738FF3020FFF735FFE8203A
:100CF000FFF70AFF8520FFF72FFF0020FFF72CFFEB
:100D00007820FFF729FFEA20FFF7FEFE0020FFF71B
:100D100023FF0020FFF720FFED20FFF7F5FE642002
:100D2000FFF71AFF0320FFF717FF1220FFF714FF4A
:100D30008120FFF711FFF720FFF7E6FE2020FFF7E5
:100D40000BFFC020FFF7E0FE2320FFF705FFC120C7
:100D5000FFF7DAFE1020FFF7FFFEC520FFF7D4FEF5
:100D60003E20FFF7F9FE2820FFF7F6FEC720FFF729
:100D7000CBFE8620FFF7F0FE3620FFF7C5FE0C20E5
:100D8000FFF7EAFE3720FFF7BFFE0020FFF7E4FE83
:100D90000020FFF7E1FE3A20FFF7B6FE5520FFF7EF
:100DA000DBFEB120FFF7B0FE0020FFF7D5FE1820D4
:100DB000FFF7D2FEB620FFF7A7FE0A20FFF7CCFE12
:100DC0008220FFF7C9FE2720FFF7C6FE0020FFF7AD
:100DD000C3FE2620FFF798FE0120FFF7BDFEE020AE
:100DE000FFF792FE0F20FFF7B7FE3A20FFF7B4FEA1
:100DF0003620FFF7B1FE0B20FFF7AEFE0D20FFF708
:100E0000ABFE0620FFF7A8FE4C20FFF7A5FE9120C1
:100E1000FFF7A2FE3120FFF79FFE0820FFF79CFEA0
:100E20001020FFF799FE0420FFF796FE1120FFF730
:100E300093FE0C20FFF790FE0020FFF78DFEE120CF
:100E4000FFF762FE0020FFF787FE0620FFF784FE13
:100E50000A20FFF781FE0520FFF77EFE1220FFF734
:100E60007BFE0920FFF778FE2C20FFF775FE92200D
:100E7000FFF772FE3F20FFF76FFE0820FFF76CFEC2
:100E80000E20FFF769FE0B20FFF766FE2E20FFF70E
:100E900063FE3320FFF760FE0F20FFF75DFE112099
:100EA000FFF732FE782004F0FDFE2920FFF72CFE2C
:100EB00070BDF8B504000D0016001F002A20FFF7D2
:100EC00023FE2800FFF770FEED19A8B2013880B2AA
:100ED000FFF76AFE2B20FFF717FE2000FFF764FEE6
:100EE000A419A0B2013880B2FFF75EFE2C20FFF7F4
:100EF0000BFEF8BD10B5A0225200121A92B20123C7
:100F0000FFF7D7FF10BD000010B582B00400A0228B
:100F1000F023520000210020FFF7CBFFC046C0465F
:100F2000C046D0231B06802252015A61C046C046EB
:100F3000C046C046C046C046802212019A61C046E3
:100F4000C046C0462302240A1C436B46DC800024B2
:100F500006E002226B46991D09483DF0C9FF0134A5
:100F6000084B9C42F5DDC046C046C046D0231B0658
:100F7000802212015A61C046C046C04602B010BD70
:100F800000000440FF2B010010B582B00124644230
:100F9000184B00932300052220211020FFF766FD47
:100FA000154B0093230003222A212020FFF75EFD2A
:100FB000124B00932300042234212020FFF756FD1A
:100FC0000F4B0093230004223E213020FFF74EFDFB
:100FD0000C4B00932300042248213020FFF746FDEC
:100FE000094B00932300042252213020FFF73EFDDD
:100FF00002B010BD6C0F04108C0F0410B00F041061
:10100000DC0F0410F40F04100C100410F0B583B0C2
:10101000002431E0E3001B195E005036B6252B009A
:101020006343174FDB1900930D230E2280213000FC
:10103000FFF722FC230018336B43DB1900930D23C9
:101040000E2290213000FFF717FC230008336B437A
:10105000DB1900930D230E22A0213000FFF70CFCBA
:10106000230010335D43ED1900950D230E22B021AE
:101070003000FFF701FC0134072CCBDD03B0F0BDDD
:10108000ACF8031010B582B0002400E00124134B2B
:101090009B69DB0617D400226B46D91D002A09D1B3
:1010A0000E4B9B69DB06FBD40C4B1B680B700132AB
:1010B0000131F3E76B46DA79094B1A54094B984230
:1010C000E4DC0130E3E7064B00221A54002C01D186
:1010D00002B010BD01204042FAE7C0460080034044
:1010E000C03D0020FE07000070B504000D0001287F
:1010F00005D0002C02D1074B9D4207D070BD054B97
:101100009942F6D104480AF041F9F2E702480AF0A0
:101110004BF9F3E7FFFF000000350020F0B5C646AD
:1011200000B582B001900E008022120100213548E6
:1011300007F0E0FF0023984600274346032B57DCC7
:1011400004F00CFE00290BDB04000D00FA229200D3
:1011500000230198310007F09DFE01900E0019E078
:10116000294B2A4A3D212A4805F0D8F9002914DBE9
:10117000001BA9418E421CDD3800FFF783FF0700EA
:10118000831C2CD0431C1DD022491E4833F0B2FBD7
:1011900000281CD104F0E2FDE8E71B4B1B4A3D216F
:1011A0001B4805F0BBF909F04BFA1B4808F016F98B
:1011B00020E08E4202D1019B8342DDD801239C4670
:1011C000E044BAE70F49154808F038F90CE0144933
:1011D0000C4833F08FFB002808D0012000E00020ED
:1011E00002B004BC9046F0BD0020F9E70220F7E70A
:1011F0000020F5E709F060FA0020F1E709F05CFA59
:1012000008F0FCFBC03D002010150410A4160410CB
:101210002C150410A0150410B0150410701504103E
:10122000A8150410F0B5DE4657464E464546E0B5D3
:1012300085B0804602921D00454C0023237080211A
:10124000444B00932300444A0901200006F044FE69
:101250004249200033F04EFB8246002861D004232F
:101260009C46E2443B4833F0B1F9040003908146C8
:1012700000239B465B46032B5EDC04F06FFD0029D8
:101280000BDB06000F00FA229200002302982900CF
:1012900007F000FE02900D0017E0314B314A3D216E
:1012A000314805F03BF9002912DB801BB9418D4222
:1012B0001ADD2000FFF7E6FE0400831C2FD0431C3C
:1012C0001BD04B46C31A43451CDA04F047FDEAE73E
:1012D000234B244A3D21244805F020F909F0B0F9B8
:1012E000224808F07BF82AE08D4202D1029B83421B
:1012F000DFD801239C46E344BCE716491C4808F0AC
:101300009DF816E012488021124B039A94466344DC
:1013100000930300104A090106F0DEFD01E00023FE
:101320009A46504605B03CBC90469946A246AB460C
:10133000F0BD00239A46F4E700239A46F1E709F04E
:10134000BBF900239A46ECE709F0B6F908F056FB22
:101350000C350020C03D002058160410A0150410C4
:1013600010150410A41604102C150410B015041048
:1013700070150410F0B5DE4657464646C0B5AE4C73
:10138000A544804614001D008D9B9A4604F0E6FC9F
:10139000002917DB06000F00FA229200002320002C
:1013A000290007F077FD01908B4643461B78002B00
:1013B0000ED1802212010021A04807F09BFE0025DB
:1013C0000124CFE09E4B9F4A3D219F4805F0A6F89F
:1013D000802143469D4A890004A806F07DFDE8E788
:1013E00000292FDB801BB9418B4538DD002C03D051
:1013F00043461B78002B4BD12800FFF743FE050026
:10140000831C00D1FEE0431C00D18FE08C9B1B7835
:10141000002B06D08C99894833F06CFA002800D054
:10142000FAE08B49854833F065FA002800D193E053
:1014300053461B78002B00D084E04146854807F0D6
:10144000FDFF7FE07E4B7F4A3D217F4805F066F837
:1014500009F0F6F84146804807F0F0FFE4E08B45DC
:1014600002D1019B8342C1D88C9B1B78002B00D1F9
:10147000C4E0002D00DCB6E07549704833F03AFA5C
:10148000002877D053461D78002D6ED00025BAE095
:10149000002304AA2DE0714B02201B5E8B4210D06A
:1014A00002AB9971002102AB981D00291BD16C4B36
:1014B0009B699B06FBD40578694B1D6001310130A7
:1014C000F3E702AB0D20D871002002ABDD1D002830
:1014D000E6D1634B9B699B06FBD42C78604B1C6068
:1014E00001300135F3E713780D3B59424B41DBB234
:1014F00001321178002912D0002BCCD002AB5971E7
:10150000002102AB581D0029EDD1554B9B699B066C
:10151000FBD40578524B1D6001310130F3E74146A1
:10152000504807F08BFF0025002465E753461D78DF
:10153000002D01D0002566E0404A41464A4807F0A8
:101540007DFF60E08022120100213C4807F0D2FDBF
:10155000642004F0A7FB01244449384833F0CAF959
:1015600000285BD104F0FAFB3AE74146404807F017
:1015700065FF48E0314B1B78002B0AD153461D789C
:10158000002D01D000253EE041463A4807F056FFC5
:1015900039E03949294833F0ADF9002808D05346DD
:1015A0001D78002D3CD14146344807F047FF2AE022
:1015B0003349224833F09EF900280AD053461D785B
:1015C000002D01D000251EE041462E4807F036FFD1
:1015D00019E053461D78002D24D1184A41462A4867
:1015E00007F02CFF0FE053461D78002D01D0002599
:1015F00009E04146254807F021FF04E0EB175D1B99
:10160000ED0F00E00025280084239B009D441CBCB6
:1016100090469A46A346F0BD0125F4E70025F2E77F
:101620000025F0E70025EEE709F046F80025EAE797
:1016300009F042F808F0E2F9F0FDFFFFC03D00209C
:1016400010150410A41604102C1504108412041094
:10165000EC120410F81204106C140410E04700207F
:10166000008003408C120410B012041028130410E0
:101670003C1304107013041098130410A4130410E6
:10168000D0130410D8130410F813041030140410ED
:1016900000B583B00499019102490091FFF76AFEF9
:1016A00003B000BD8C14041030B585B004000F23C6
:1016B0006B4400221A7004480193009022000B0032
:1016C000FFF758FE05B030BDA4150410F0B5CE46A6
:1016D000474680B5AF4CA544040007901E00FFAB01
:1016E00054331B6899468025AD000493AA4B03939D
:1016F0000292AA4B0193AA4B00930B00A94A29001E
:101700008AA806F0E9FB8AA832F060FF0090230067
:10171000A54A29000AA806F0DFFBFFAB2F33012200
:101720001A700193A14B0093FA2200230AA8FFF735
:1017300021FE00238AAA33E09D4B02201B5E8B42D0
:1017400013D01A2302A884466344197000211A207A
:10175000604400291ED1974B9B699B06FBD40578FA
:10176000944B1D6001310130F3E71B2302A884462E
:1017700063440D20187000201B2565440028E0D12B
:101780008C4B9B699B06FBD42C788A4B1C600130E8
:101790000135F3E713780D3B59424B41DBB201327F
:1017A0001178002915D0002BC6D0192302A8844631
:1017B000634419700021192060440029EAD17D4B4F
:1017C0009B699B06FBD405787A4B1D600131013083
:1017D000F3E78AA807F032FE0A2007F0A3FDFFAB6B
:1017E000303301221A700093734A00237348FFF7C5
:1017F0004FFF00281ED000244B46002B00DC9FE04A
:1018000080239B00994519DD1D0080210095079BD1
:101810006B4A89000AA806F05FFBFFAB3133012257
:101820001A700193614B0093FA2200230AA8FFF774
:10183000A1FD05E0634807F0D1FDDCE74D46E4E794
:10184000002718E01D2302AA944663440D221A7053
:1018500000221D206044002A17D1564B9B699B062D
:10186000FBD40478534B1C6001320130F3E75C2950
:101870001BD001374446BD4249DD631C9846315DAB
:101880004B4B02229B5E8B42DCD009AB19700022CD
:101890001800002AEBD1474B9B699B06FBD40478C8
:1018A000444B1C6001320130F3E76B1EBB42E0D0B9
:1018B0003F4B02229B5E5C2B14D01E2302AA94464F
:1018C00063445C221A7000221E216144002AD0D198
:1018D000384B9B699B06FBD40878364B1860013265
:1018E0000131F3E73D3B02AA944663440D221A708E
:1018F00000223D396144002ADFD12E4B9B699B06B3
:10190000FBD408782B4B186001320131F3E74B46CA
:101910005B1B9946FFAB323301221A700093FA2207
:1019200000232648FFF7B4FE002804D121002648F2
:1019300007F084FD60E72100244807F07FFD5BE7A6
:10194000FFAB58331B68002B05D0214B9D440CBCCA
:1019500090469946F0BD8021079B1E4A89000AA83F
:1019600006F0BAFAFFAB333301221A700093FA2261
:1019700000230AA8FFF78CFEE7E708F061FE16488F
:1019800007F02CFD08F098FEDFE708F095FE08F060
:1019900035F8C046CCFBFFFFF81004100C11041002
:1019A0001C110410D81004102C110410841E0410F3
:1019B000E047002000800340B80B0000A41504108D
:1019C000441104103C11041054110410601104104F
:1019D00034040000701104107C11041030B54B4C1D
:1019E000A54405000C008021494B00932300494A7F
:1019F000890003A806F070FA2100474807F01EFD91
:101A0000200032F0E3FD802100902B00434A890042
:101A100083A806F061FAFFAB113301221A7000931C
:101A2000FA22002383A8FFF733FE002802D13C4BA3
:101A30009D4430BDFFAB123301221A700193394B24
:101A40000093FA2200233848FFF794FC0028EED0D8
:101A5000002303AA2DE0354B02201B5E8B4210D0E1
:101A60000A236B4419700021180000291BD1304B48
:101A70009B699B06FBD404782D4B1C60013101301F
:101A8000F3E70B236B440D20187000201C00002886
:101A9000E6D1274B9B699B06FBD42578244B1D6020
:101AA00001300134F3E713780D3B59424B41DBB26F
:101AB00001321178002912D0002BCCD009236B44BD
:101AC0001970002118000029EDD1194B9B699B0664
:101AD000FBD40478164B1C6001310130F3E7FFABF7
:101AE000133301221A700093FA2200230E48FFF7E5
:101AF000CFFD9CE708F0A4FD0E4807F06FFC08F04E
:101B0000DBFD94E708F0D8FD07F078FFECFBFFFF62
:101B10002810041058160410541004102C1104102E
:101B200014040000841E0410A4150410E0470020D3
:101B30000080034064100410D0B594B000230B93D0
:101B40000C930D9301220E920F93463310930BA822
:101B500031F0A0F806000F0009AC200007F0ACFE41
:101B60000C22002106A807F0C5FA0022A35E124A43
:101B70009446634405930223E356013B04930323F5
:101B8000E35603930523E35602930623E35601939A
:101B90000723E3560093684631F07CF832003B009F
:101BA0002FF010FA06F084FDFA229200002307F0CD
:101BB00071F914B0D0BDC04694F8FFFF30B583B0C2
:101BC000284B9A69102313405D425D41EDB2002B12
:101BD0001DD0254B9B69DB06F2D407F03FFCC0B259
:101BE00011283DD0214B02229B5E834227D06B46B9
:101BF0009A1D107000210029E2D11A4B9B699B06A7
:101C0000FBD41078174B186001310132F3E7002440
:101C100004E06B46587907F085FB0134AC42CFDA1B
:101C200000226B46591D002AF3D10E4B9B69DB063F
:101C3000FBD40C4B1B680B7001320131F3E76B4690
:101C4000DA1D0D23137000210029D0D1054B9B69AB
:101C50009B06FBD41478034B1C6001310132F3E77F
:101C600003B030BD0080034000400340E047002047
:101C7000F0B583B006000F0014001D002FF0A8F986
:101C8000036800932FF0A4F900230360089A01A9C8
:101C90002000B0470600019BA34202D02FF098F924
:101CA0000DE0380027F07EF82FF092F90368002B42
:101CB00003D1009C2FF08CF9046007F09FFE0368AD
:101CC000222B0CD0002D02D0019B1C1B2C602FF06E
:101CD0007FF90368002B05D0300003B0F0BD380059
:101CE00027F090F8009C2FF073F90460F4E70000EF
:101CF00010B50400084B0360406A23002C3398425F
:101D000001D008F06FFE054B236020001C3008F066
:101D10002FFF200010BDC04628C204103CDC041078
:101D200010B504000A4B0360406A23002C3398422C
:101D300001D008F057FE074B236020001C3008F04C
:101D400017FF3C21200008F077FC200010BDC046A2
:101D500028C204103CDC0410F0B5DE4657464E465F
:101D60004546E0B59BB008900C910D9214AC002252
:101D70000100200027F016FB2378002B07D10898DC
:101D80001BB03CBC90469946A246AB46F0BD002332
:101D90000F930D9C200032F019FC2618089D2B682B
:101DA00009930C3B1968A94649446C3115A808F001
:101DB00045FE15A818F090FA824615A808F0D8FE3E
:101DC0002B680C3B1B6899444B469B6F1693012371
:101DD0005B4217930022189219930C9B09930832C7
:101DE00016A910A807F08CF9082218A912A807F064
:101DF00087F948466C300DF0B5FE050000230F93BF
:101E0000A0E08368C268934204D21F787B1C06D08E
:101E10001197A4E003685B6A98470700F6E7002380
:101E200010939CE001277F4299E09A68D9688A4222
:101E300004D21078431C06D013909CE01A68526AB2
:101E400018009047F6E70023129394E001204042E7
:101E500091E006230F930F99002990D0089A1368F8
:101E600009930C3B186894466044436919431DF07C
:101E7000F9F884E72B681B6A00223900280098478C
:101E8000031E00D185E0EF191E37FF37387080E060
:101E9000631C98469E4224D063789B46EB181E3301
:101EA000FF331F78002F1FD0452F2BD04F2F29D065
:101EB0003B00002752461268126A934610AC069700
:101EC0000593099B04930FAB03934B46029312AB0C
:101ED0006A4603CB03C2109A636851460AA8D847E2
:101EE0002BE004230F93B6E72B681B6A00225946A8
:101EF00028009847071ED7D05B46EB181E33FF33E8
:101F00001870D1E7A31C98469E4213D0A4782B19D1
:101F10001E33FF331B78002BCCD12B681B6A0022A9
:101F2000210028009847031EC4D02C191E34FF340A
:101F30002070BFE704230F938DE70AAB06CB06C4DE
:101F400044460134A64286D00F9B002B83D11098C3
:101F5000002800D166E7119F7B1C00D151E70137B3
:101F600078424741FFB2129B002B00D16EE71398D5
:101F7000421C00D159E7013043425841874200D109
:101F800067E72778EB191E33FF331B78002B00D14E
:101F900070E7252B00D17BE72378AA69D35C1B0768
:101FA00076D50134A6423DD02378D35C1B0739D5C2
:101FB0000134F7E78368C268934204D21F787B1C20
:101FC00006D0119734E003685B6A98470700F6E78C
:101FD000002310932CE001277F4229E09A68D968FA
:101FE0008A4204D21078431C06D013902AE01A6863
:101FF000526A18009047F6E70023129322E001206E
:1020000040421FE003685B6A984703002BE0002210
:102010001092FF201840AB691B5C1B0792D51098EB
:10202000002827D110980028D5D0119F7B1CC1D043
:10203000013778424741FFB2129B002BDFD0139843
:10204000421CCBD0013043425841874200D179E74E
:10205000109800280BD0119B5A1CDAD18368C268F3
:102060009342CFD21B785A1CD1D01193D1E70123D0
:102070005B42CEE78368C268934205D20133836036
:1020800001235B421193CDE703689B6A9847F7E70A
:102090001098002819D011994B1C05D0C9B22B6893
:1020A0001B692800984713E08368C268934204D2F2
:1020B00019784B1C06D01191F0E703685B6A9847CA
:1020C0000100F6E700231093E8E701214942E5E724
:1020D000070021782B681B692800984787420DD19B
:1020E0001098002808D08368C268934231D2013327
:1020F000836001235B421193013423E71098002889
:1021000019D011994B1C05D0C9B22B689B682800C7
:10211000984713E08368C268934204D219784B1C35
:1021200006D01191F0E703685B6A98470100F6E773
:1021300000231093E8E701214942E5E707002178F1
:102140002B689B68280098478742C9D004230F93C7
:1021500081E603689B6A9847CBE704000D0015A849
:1021600008F006FD20002900012918D108F068FABE
:10217000089A136808930C3B1B689446634401213A
:102180005A690A435A611B690B4206D007F05EFD8B
:1021900008F092FA07F032FCE6E707F057FD08F086
:1021A0004FFA089A136809930C3B1B6894466344E2
:1021B00001215A690A435A611B690B4205D007F095
:1021C00045FD08F079FA07F019FC08F075FA42E6C7
:1021D00070B50400150043685A1A521B09D0002D2F
:1021E00007D00368581849195918012A09D030F046
:1021F00011FC63685A1B626023689A1800231370ED
:1022000070BD0B780370F4E710B50B68002B0CDB86
:10221000934205D95200934202D20A60002A07DB9A
:102220000868013008F0E2FB10BD034826F0D2FD3B
:10223000024B0B60F4E7C0468C160410FFFFFF7FD3
:1022400070B582B005000E1E10D0941B01940F2CA7
:1022500011D82868012C17D0002C18D1019A6A6077
:102260002B689B1800221A7002B070BD9142ECD00E
:10227000094826F07FFD002201A92800FFF7C4FFCE
:102280002860019BAB60E4E733780370E6E7220047
:10229000310006F035FFE1E76016041070B5050067
:1022A0000C00030008330360002901D14A1E03E03B
:1022B000080032F08BF92218002321002800FFF7D4
:1022C000BFFF280070BD0000F0B5BBB007000D00D7
:1022D0001600180032F00EFB041E05D002AB00936E
:1022E00000280BD1421E0CE03B0008333B607A49CA
:1022F00000230A003800FFF7A3FFD2E032F066F9AE
:102300002218002321006846FFF79AFF280032F0C8
:102310005DF9019A411C30D0002806D0904200D2CD
:10232000020000216846FFF753FF002E00D1ACE009
:1023300006AC17A827F046F9684B63640023B42263
:10234000A3500432A3540132A3540332A3500432E5
:10235000A3500432A3500432A35061494A68069244
:102360000C3A12688968A1506360069B0C3B1868A0
:10237000201800211CF0BAFE04E000230193009A0B
:102380001370D2E7574B069314331793564B0893A9
:10239000002409940A940B940C940D940E940FA8A5
:1023A00009F044FD514B0893109413AB1193009B1B
:1023B00001998C4663441A000023009911A8FFF785
:1023C0003FFF0823109311990023002208A815F05D
:1023D000BDFE08A917A81CF089FE29E00400119889
:1023E00013AB984201D008F0FDFA3F4B08930FA8B9
:1023F00008F0BEFB3A494B6806AA06930C3B1B68E3
:102400008968D15000230793344B179317A827F0FE
:1024100031F9009802AB984201D008F0E3FA2000AD
:1024200008F00EF9324806F0D9FF48E00400DCE776
:102430003200694606A808F0E7FF06E0040008A895
:10244000FFF756FCD6E70400DEE7264B069314336D
:102450001793264B0893119813AB984201D008F0BC
:10246000C1FA06AC204B08930FA808F081FB1C4A68
:10247000536806930C3B1B689268E250002363602C
:10248000164B636417A827F0F5F838000830386059
:10249000009B02AA934207D03B60029BBB60019B5A
:1024A0007B6038003BB0F0BD102202A906F028FE88
:1024B000F5E7040006A815F077FCAAE7B0E739AA0B
:1024C00005493800FFF7EAFE08F0F6F8E9E708F0FA
:1024D000F3F807F093FAC046A41504109CD004103A
:1024E00088C20410A4C204103CDC041028C20410EA
:1024F0002C100410F0B5CFB097235B006B44002282
:102500001A700093FA22D2000023A248FFF7C0F805
:10251000041E00D109E10A250DE109999E4806F043
:102520008DFF18AE29A827F04DF89C4B736400234B
:10253000B422B3500432B3540132B3540332B35013
:102540000432B3500432B3500432B35094494A6851
:1025500018920C3A12688968B1507360189B0C3B52
:102560001868301800211CF0C1FD8E4B18931433ED
:1025700029938D4B1A9300261B961C961D961E962A
:102580001F96209621A809F051FC884B1A93229699
:1025900025AB2393099B0A998C4663441A000023B8
:1025A000099923A8FFF74CFE0823229323990023BF
:1025B00000221AA815F0CAFD1AA929A81CF096FD38
:1025C00022E0239825AB984201D008F00BFA764B15
:1025D0001A9321A808F0CCFA71494B6818AA1893ED
:1025E0000C3B1B688968D150002319936B4B2993CE
:1025F00029A827F03FF809980BAB984201D008F0C2
:10260000F1F907F0FBF9E2E705232E9A134225D0F2
:10261000644B189314332993644B1A93239825AB76
:10262000984201D008F0DEF918AE5F4B1A9321A84A
:1026300008F09EFA5A4A536818930C3B1B6892683C
:10264000F25000237360554B736429A827F012F8E9
:1026500091E01AA8FFF74CFBBEE7C7E70FAE2422B4
:102660000021300006F046FD4C96514A4D92310053
:1026700018A8FFF771FB0FA830F00CFB4D4A0023A0
:1026800080185941049005910FA904A82FF0DCFB94
:102690000FAE149B484A9446634419B207A80180C0
:1026A000139B5A1C52B282700C23F356C370159FB1
:1026B00007710827F7574771367976B2B4468671A5
:1026C0000F9E76B2C67102966046019000973B4815
:1026D00006F0B4FE07A807F0BBF8324B189314338A
:1026E0002993324B1A93239825AB984201D008F0D6
:1026F00079F918AE2C4B1A9321A808F039FA284A18
:10270000536818930C3B1B689268F2500023736067
:10271000224B736429A826F0ADFF09980BAB9842B1
:1027200001D008F05FF9002D2CD020004FB0F0BD93
:10273000013D002DF7D0FA20800003F0B3FA3023DA
:10274000FF336B4400221A700093FA22D200002358
:102750001B48FEF79DFF1B491B4832F0CBF80028B1
:10276000E6D1194B0D22194909A8FFF7ADFD0A9BC7
:10277000002B00D0D1E609980BAB9842D8D008F0D6
:1027800031F9D5E70024D0E718A815F00DFB32E7A2
:1027900031E7C046A8110410E01104109CD00410C9
:1027A00088C20410A4C204103CDC041028C2041027
:1027B00004120410907E00006C0700001C1204102C
:1027C000C8110410D8110410C03D0020A01004103E
:1027D00030B587B00D001B4932F08CF8831C0D22F8
:1027E00029006846FFF770FD019B002B09D10024EA
:1027F000009802AB984201D008F0F4F8200007B02E
:1028000030BD00982EF07AFB0400020029000E482B
:1028100006F014FEECE70400009802AB984201D0E9
:1028200008F0E0F8200007F00BFF084806F0D6FD9E
:1028300000E0F8E707F040FF0024DFE707F03CFF87
:1028400007F0DCF864EF0310A0140410AC140410BB
:10285000F0B5C64600B582B004000E00884215D01F
:102860004D680700083703689F4213D08268AA4268
:1028700012D3002D05D020683168012D1CD10B78B2
:102880000370656023685D1900232B7002B004BCDF
:102890009046F0BD0F22EAE7019501A92000FFF75D
:1028A000B3FC80462068874201D008F09BF843467D
:1028B0002360019BA360DCE72A0006F021FCE0E72F
:1028C000F0B5D64600B5FAB005000F0000920193AE
:1028D000809E04AB02930024039402AB1C7219A8DF
:1028E00026F070FE08ABD84A1992B4229C500432EC
:1028F0009C5401329C5403329C5004329C5004324C
:102900009C5004329C50D1494A6808920C3A126893
:102910007AA884466244C93AFF3A896811600994EA
:10292000089B0C3B186808AB9C46604400211CF0D7
:10293000DDFBC74B089314331993C64B0A930B94D2
:102940000C940D940E940F94109411A809F06EFA43
:10295000C14B0A93129415AB1393336871688C467C
:1029600063441A000023316813A8FFF769FC0823A9
:1029700012931399002300220AA815F0E7FB0AA975
:1029800019A81CF0B3FB2DE00400139815AB984276
:1029900001D008F027F8AF4B0A9311A808F0E8F827
:1029A000AA4A536808930C3B1B687AA98C46634477
:1029B000C93BFF3B92681A6000230993A24B19930D
:1029C00019A826F057FE029804AB984201D008F0EF
:1029D00009F8200007F034FEA04806F0FFFC70E183
:1029E0000400D8E7009A02A908A808F00DFD06E047
:1029F00004000AA8FFF77CF9D2E70400DEE7002410
:102A000000E001347B1EA34205DD009A02A908A85C
:102A100008F0FAFCF5E7019B002B01D1002F44DC04
:102A2000002F48DC280008302860029B04AA93424B
:102A300000D13CE12B60049BAB60039B00936B6077
:102A400004AB02930023039302AA1372804B0893F2
:102A500014331993804B0A93139815AB984201D005
:102A600007F0C0FF7B4B0A9311A808F081F8774A62
:102A7000536808930C3B1B687AA98C466344C93B96
:102A8000FF3B92681A60002309936F4B199319A8B2
:102A900026F0F0FD029804AB984201D007F0A2FFA7
:102AA00028007AB004BC9246F0BD009A02A908A89A
:102AB00008F0AAFCB6E708A974A826F025FD749AC8
:102AC00073689A420DD870AB6E93316873689A42FE
:102AD0000DD889189A1A8A1800236EA8FFF7B0FB40
:102AE00009E05F495F4826F0A5F9040098E05E49D7
:102AF0005C4826F09FF9029B6E9A70A98A4243D0E7
:102B000004A98B423BD004998A4602926F9A0392A1
:102B1000709A00920492002B33D06E9353467093B8
:102B200000236F936E9A13706E9870AB984201D029
:102B300007F058FF3BAC4CA826F044FD424B6364C1
:102B40000023B422A3500432A3540132A35403320D
:102B5000A3500432A3500432A3500432A3503B4983
:102B60004A683B920C3A12688968A15063603B9BAB
:102B70000C3B1868201800211CF0B8FA09E000236B
:102B8000C3E770AB6E93CBE76EA902A8FFF760FEB8
:102B9000C6E72F4B3B9314334C932E4B3D930024AD
:102BA0003E943F94409441944294439444A809F045
:102BB0003DF9294B3D93459448AB4693029B0399BD
:102BC0008C4663441A000023029946A8FFF738FB9D
:102BD000082345934699002300223DA815F0B6FA34
:102BE0003DA94CA81CF082FA20E00400469848ABAE
:102BF000984201D007F0F6FE164B3D9344A807F02B
:102C0000B7FF12494B683BAA3B930C3B1B68896892
:102C1000D15000233C930C4B4C934CA826F02AFD3A
:102C200008A815F0C1F8CEE60400E5E7019A02A96C
:102C30003BA808F0E9FB19E004003DA8FFF758F8AD
:102C4000DFE70400E7E7C0469CD0041088C2041008
:102C5000A4C204103CDC041028C204103016041076
:102C6000C4150410DC150410141604101B4B3B9300
:102C700014334C931A4B3D93469848AB984201D07D
:102C800007F0B0FE3BAC174B3D9344A807F070FF34
:102C9000154A53683B930C3B1B689268E250002333
:102CA0006360124B63644CA826F0E4FCBAE6102281
:102CB00004A906F025FAC0E604003BA815F074F854
:102CC000AEE779AA0A492800FFF7E8FA07F0F4FC12
:102CD000E6E607F0F1FC06F091FEC046A4C204103F
:102CE00028C204103CDC041088C204109CD00410DC
:102CF000A415041030B58BB005000B236B440022E3
:102D00001A700093FA22D20000232C48FEF7C0FC70
:102D100000280BD02A492B4831F0ECFD041E0FD0BF
:102D200005AB0393002815D1421E16E02B00083393
:102D30002B60254900230A002800FFF781FA1FE0D5
:102D40002B0008332B60204900230A002800FFF7DE
:102D500077FA15E031F03AFC22180023210003A88D
:102D6000FFF76EFA03AB0093002322220121280013
:102D7000FFF7A6FD039805AB984201D007F032FE9D
:102D800028000BB030BD0400039805AB984201D079
:102D900007F028FE200007F053FC0C4806F01EFB4D
:102DA00000E0F8E709AA08492800FFF777FA07F0DA
:102DB00083FCE5E707F080FC06F020FEDC1404103D
:102DC000E4140410C03D0020A4150410EC140410F9
:102DD00030B58BB005000B236B4400221A700093B2
:102DE000FA22920000232C48FEF752FC00280BD058
:102DF0002A492B4831F07EFD041E0FD005AB03930A
:102E0000002815D1421E16E02B0008332B602549FF
:102E100000230A002800FFF713FA1FE02B000833F5
:102E20002B60204900230A002800FFF709FA15E06B
:102E300031F0CCFB22180023210003A8FFF700FA91
:102E400003AB00930D233A2201212800FFF738FD40
:102E5000039805AB984201D007F0C4FD28000BB0E1
:102E600030BD0400039805AB984201D007F0BAFDCD
:102E7000200007F0E5FB0C4806F0B0FA00E0F8E7A8
:102E800009AA08492800FFF709FA07F015FCE5E749
:102E900007F012FC06F0B2FD501204105412041098
:102EA000C03D0020A41504105812041010B590B0B5
:102EB00027236B4400221A700093FA229200002309
:102EC0003248FEF7E5FB002837D03149314831F070
:102ED00011FD041E36D00CAB0A93002801D1421E0E
:102EE00002E031F073FB2218002321000AA8FFF74B
:102EF000A7F90AAB00932C233A22012103A8FFF77C
:102F0000DFFC0A980CAB984201D007F06BFD049BE4
:102F1000002B08D101246442039805AB98420ED0DF
:102F200007F060FD0BE00A2300930023039A1A497F
:102F30001A48FEF79DFE0400EEE7012464422000DB
:102F400010B010BD01246442F9E704000A980CABEC
:102F5000984201D007F046FD200007F071FB1048B1
:102F600006F03CFA09E00400039805AB984201D052
:102F700007F038FD2000F0E7EFE707F09DFB0124A4
:102F80006442DCE707F098FB06F038FD8C10041073
:102F900098100410C03D0020A4100410B15C031070
:102FA000AC10041070B582B005000E1E10D0941B3A
:102FB00001940F2C11D82868012C17D0002C18D19F
:102FC000019A6A602B689B1800221A7002B070BDCB
:102FD0009142ECD0094825F0CDFE002201A928003D
:102FE000FFF712F92860019BAB60E4E733780370C8
:102FF000E6E72200310006F083F8E1E760160410EE
:1030000030B589B0040008001500264931F072FC83
:10301000831C0D22290001A8FFF756F9029B002B03
:1030200012D0019A2900204806F008FA230008333C
:103030002360019B02998C4663441A000023019986
:103040002000FFF7AFFF08E0230008332360174993
:1030500000230A002000FFF7F3F8019803AB984221
:1030600001D007F0BFFC200009B030BD0500019879
:1030700003AB984201D007F0B5FC280007F0E0FA56
:103080000B4806F0ABF900E0F8E707AA0749200073
:10309000FFF704F907F010FBE5E707F00DFB06F07A
:1030A000ADFCC04664EF031094140410A415041082
:1030B000AC14041010B502490120FEF715F810BD3C
:1030C000FFFF0000F0B583B006000F0045680195D2
:1030D000080031F07BFA0400009085420CD96B4661
:1030E0001A683068002A09D039002FF06DFC0028DA
:1030F00000D1281B03B0F0BD01ABF1E70020F6E7DB
:1031000030B56E4CA5446E4B6B4400221A70009390
:10311000FA22D20000236B48FEF7BAFA041E04D14B
:1031200020008B239B009D4430BD674806F056F974
:103130008021664B664A890008A804F0CDFE654BE5
:103140006B4400221A700093FA22D200002308A8D0
:10315000FEF79EFA041EE3D05C495F4806F06EF964
:10316000FFF7A4FE002803DD5C4806F037F914E001
:103170005B4806F033F95B4806F030F95A4806F030
:103180002DF95A4806F02AF9594806F027F9594806
:1031900006F024F9FEF712FD0AE089AB00221A704E
:1031A0000093554A00235548FEF772FA041EB7D023
:1031B00002A8FFF79FFD524902A8FFF783FF0028EE
:1031C00002D0039B002B03D14E4806F007F95AE0CA
:1031D0004D4806F003F902994C4806F02FF94C4887
:1031E00006F0FCF8FFF786F9041E03D1494806F003
:1031F000F5F849E0FEF7A0FC9A235B00994207D856
:1032000002D1454B984203D8444806F0E7F843E022
:10321000434B6B4400221A700093FA22D200002321
:103220004048FEF735FA041E2ED080213E4B3F4A1F
:10323000890008A804F050FE3D4B6B4400221A7030
:103240000093FA22D200002308A8FEF721FA041EF8
:103250001AD03549374806F0F1F8374B6B44012254
:103260001A700093FA22920000233448FEF710FAF5
:10327000051E03D1324806F0B1F805E0314806F0EA
:10328000ADF82C0000E00024029804AB984200D175
:1032900046E707F0A7FB43E70024F5E704000298A0
:1032A00004AB984201D007F09DFB200007F0C8F95D
:1032B00007F002FA002433E7F8E7C046D4FDFFFF29
:1032C00022020000301804103C1804105C1804108E
:1032D0006C180410230200007C180410481A041013
:1032E0009C180410F01804103C1904108C190410D8
:1032F000B0190410F419041030750000781A041085
:10330000801A0410881A0410AC1A0410C81A041089
:10331000E41A04100C1B0410FF371163381B04104F
:1033200025020000581B0410641B04106C1B0410C1
:10333000260200007C1B041027020000A41B0410BE
:10334000B01B0410D81B0410F0B5C64600B582B0FF
:103350000C001E1E436806D193422CD3100002B00D
:1033600004BC9046F0BD934228D9097801910168C8
:1033700088468818CF189A1A06E000250EE000202B
:10338000002815D0681C3A1AB2421AD3921B013297
:10339000002AF2D001992FF0D7FA0500002D13D0A2
:1033A000002EECD03200210028002FF00DFBE7E7C3
:1033B0004346E81AD3E701204042D0E701204042CB
:1033C000CDE701204042CAE701204042C7E7F0B5FF
:1033D000DE4657464646C0B582B004000E00904611
:1033E0001D0043685F1ABF1A0A9A94466344424616
:1033F0009B1A019308239B46834403689B4534D062
:10340000826801A92000FEF7FFFE8246002E04D04C
:103410002168012E2BD10B780370002D09D00A9B57
:10342000002B06D0534698190A9B012B23D12B78E9
:103430000370002F0AD00A9BF51828005044464418
:1034400023689919012F1BD10B78037020688345DD
:1034500001D007F0C7FA53462360019BA36002B076
:103460001CBC90469A46A346F0BD0F22C9E7320025
:1034700005F046FED1E70A9A290005F041FED8E79B
:103480003A0005F03DFEE1E770B582B00400466801
:10349000B51800682300083398420AD0A3689D42FB
:1034A0000CD8002A11D08019012A04D10B7803709E
:1034B0000BE00F23F3E705F023FE06E000920B007C
:1034C000002231002000FFF782FF656023689C46E0
:1034D000654400222A70200002B070BD30B58FB064
:1034E00004000B0004AA029209685A688A18002393
:1034F00002A8FFF757FD029A2168374805F09EFFA2
:103500000AAB0893029B03998C4663441A0000237C
:10351000029908A8FFF746FD304B099A9B1A012B28
:1035200005D902222E4908A8FFF7AEFF16E02D4864
:1035300025F050FC040008980AAB984201D007F02F
:1035400051FA029804AB984201D007F04BFA2000E0
:1035500007F076F8244805F041FF36E0029B089A10
:103560000AA98A4221D004A98B4219D0049D029253
:10357000099A03920A9A01920492002B12D008939E
:103580000A9500230993089A137008980AAB984289
:1035900001D007F027FA20680299FEF71FFA09E028
:1035A0000023E4E70AAB0893EBE708A902A8FFF7BA
:1035B0004FF9E6E7029804AB984201D007F012FAFF
:1035C0000FB030BD0400BCE7C2E707F075F8F7E7BD
:1035D00007F072F806F012FAE0170410FFFFFF7F01
:1035E00064EF0310FC1704101418041030B58FB0EA
:1035F00005000C000AAB0893116852688A18002372
:1036000008A8FFF7CFFC08AB00930023202200217D
:1036100002A8FFF755F908980AAB984201D007F0C5
:10362000E1F92968029B22684A4805F007FF4A49E8
:103630002000FFF747FD002805D048492000FFF78C
:1036400041FD00280ED1464902A8FFF73BFD0028A6
:1036500023D0D0231B06802252059A61414805F0F1
:10366000BDFE4FE040492000FFF72CFD002805D0AB
:103670003E492000FFF726FD002817D1384902A84F
:10368000FFF720FD00282CD1D0231B068022D20476
:103690005A61374805F0A2FE34E0D0231B06802291
:1036A00052055A61334805F099FE2BE0324920005B
:1036B000FFF708FD002805D030492000FFF702FD84
:1036C00000281FD1264902A8FFF7FCFC002811D1D1
:1036D000D0231B06802252035A61294805F07EFE42
:1036E00010E0D0231B068022D2049A61254805F001
:1036F00075FE07E0D0231B06802252039A61224800
:1037000005F06CFE029804AB984201D007F06AF90C
:103710000FB030BD040008980AAB984201D007F002
:1037200061F9200006F08CFF184805F057FE09E00B
:103730000400029804AB984201D007F053F920002E
:10374000F0E7EFE706F0B8FFE2E706F0B5FF06F0B6
:1037500055F9C046DC1604100017041000F50410DB
:103760000417041028170410081704104017041039
:103770005017041010170410481704108417041071
:103780008C17041068170410A4170410BC17041039
:10379000F0B5C64600B5CE4CA5442EAB30AA2E924D
:1037A00000225A601A72CB4805F018FE0FE026007E
:1037B000C94B9B69DB060CD5012EF9D1C74B1C68A0
:1037C000002CF5D1C6492E98FEF708F9EFE7002640
:1037D000EEE7FA200021FDF7A1FC0028ECD006ABB3
:1037E0000493C04C200030F0F1FE021900232100A8
:1037F00004A8FEF725FD07230022BB4904A8FFF714
:10380000A3FD431C05D00238049B195CB74805F0A2
:1038100015FE06230022B64904A8FFF795FD431CB8
:103820000AD1B449AF4831F065F8041E00D12EE248
:10383000B14805F0D3FD06E00238049B195CAF489F
:1038400005F0FCFDEDE72100AD4805F0F7FD36ABD6
:103850003493002C01D1621E03E0200030F0B6FE4C
:1038600022180023210034A8FEF7EAFC34AB0093B1
:1038700000232C2201210AA8FFF722F8349836AB46
:10388000984201D007F0AEF83CAB3A93002C01D13E
:10389000621E03E0200030F099FE22180023210070
:1038A0003AA8FEF7CDFC3AAB00933A232C22022132
:1038B00010A8FFF705F83A983CAB984201D007F002
:1038C00091F842AB4093002C01D1621E03E020002E
:1038D00030F07CFE22180023210040A8FEF7B0FC47
:1038E00040AB00930D232C22022116A8FEF7E8FF1F
:1038F000409842AB984201D007F074F84EAB4C931D
:10390000169B17998C4663441A00002316994CA8FD
:10391000FFF748FB4CAB00930D233A22012146A848
:10392000FEF7CEFF169B469A48A98A422FD018A9C7
:103930008B4227D0189F1692479A1792489A039263
:103940001892002B20D04693489700234793469A1D
:103950001370469848AB984201D007F043F84C9852
:103960004EAB984201D007F03DF854AB5293169BF2
:1039700017998C4663441A000023169952A8FFF742
:1039800011FB09E00023D6E748AB4693DDE746A9E3
:1039900016A8FEF75DFFD8E752AB00930023202264
:1039A00000211CA8FEF78CFF529854AB984201D01E
:1039B00007F018F853491CA8FFF784FB002805D02E
:1039C00051491CA8FFF77EFB002812D14F4A4549F8
:1039D00058A8FFF715FB4E4958A8FFF773FB0500E1
:1039E00058985AAB984201D006F0FCFF002D00D049
:1039F000012544491CA8FFF765FB002806D12B00D0
:103A0000002216A90AA801F067F928E13E491CA87E
:103A1000FFF758FB002814D13E493248FEF7D8FE84
:103A2000FA2292000023FDF7FDFB040001003A4852
:103A300005F004FD2B00220016A90AA801F04CF99C
:103A40000DE136491CA8FFF73DFB002805D034499D
:103A50001CA8FFF737FB00280CD166AB6493169BBC
:103A600017998C4663441A000023169964A8FFF73F
:103A700099FA5FE02B491CA8FFF724FB002800D12E
:103A80009EE029491CA8FFF71DFB002800D197E004
:103A9000124B1B68002B00D101E124491CA8FFF741
:103AA00011FB002806D022491CA8FFF70BFB0028B9
:103AB00000D0D4E084AB8293169B17998C46634464
:103AC0001A000023169982A8FFF76CFA64E1C04639
:103AD000E0FDFFFF001C041000800340443D002077
:103AE000EC1D0410C03D00201C1C0410241C0410FC
:103AF000481C0410A8150410741C0410501C041059
:103B0000BC1C0410C81C0410CC1C0410D41C0410D1
:103B1000E41C0410F8100410EC1C0410F81C041031
:103B2000001D0410081D0410381D0410701D041021
:103B3000CC1D041064AB00930D23202201215EA84C
:103B4000FEF7BEFE169B5E9A60A98A4229D018A98C
:103B50008B4221D01899884616925F9A1792609AE4
:103B600003921892002B19D05E9343466093002372
:103B70005F935E9A13705E9860AB984201D006F036
:103B800031FF649866AB984201D006F02BFF0A998A
:103B9000CE4805F053FC09E00023DDE760AB5E93FF
:103BA000E5E75EA916A8FEF753FEE0E7169A1C9912
:103BB000C74805F043FC16A90AA8FFF78FFC4EE0A2
:103BC0006CAB6A93169B17998C4663441A000023CA
:103BD00016996AA8FFF7E6F96AAB00930023202242
:103BE000012122A8FEF76CFE6A986CAB984201D0C6
:103BF00006F0F8FE72AB7093169B17998C466344DF
:103C00001A000023169970A8FFF7CCF970AB009347
:103C10000D232022022128A8FEF752FE709872ABD5
:103C2000984201D006F0DEFE0A99A84805F006FC8D
:103C3000289B229A1C99A74805F000FC28AA22A9D3
:103C40000AA8FFF7D3FC28982AAB984201D006F0C7
:103C5000C9FE229824AB984201D006F0C3FE1C98FE
:103C60001EAB984201D006F0BDFE169818AB9842E4
:103C700001D006F0B7FE109812AB984201D006F0C2
:103C8000B1FE0A980CAB984201D006F0ABFE049846
:103C900006AB984200D18FE506F0A4FE8CE58E4974
:103CA0001CA8FFF70FFA002806D08C491CA8FFF7C4
:103CB00009FA002800D0F0E678AB7693169B1799A6
:103CC0008C4663441A000023169976A8FFF76AF918
:103CD00076AB009300232022012122A8FEF7F0FDFD
:103CE000769878AB984201D006F07CFE7EAB7C9350
:103CF000169B17998C4663441A00002316997CA8DA
:103D0000FFF750F97CAB00930D232022022128A855
:103D1000FEF7D6FD7C987EAB984201D006F062FE9D
:103D20000A996A4805F08AFB289B229A1C996C48DC
:103D300005F084FB012200230A9805F053FC0122C0
:103D40000023229805F04EFC01220023289805F05C
:103D500049FC05F093FC0400012001F0A3FF002CB6
:103D600003D1604805F03AFB08E05F490A98FDF787
:103D700035FE0AA92EA8FEF76BFD012628982AAB6E
:103D8000984201D006F02EFE229824AB984200D132
:103D900065E706F027FE62E782AB00930D23202241
:103DA000012128A8FEF78CFD829884AB984201D0AF
:103DB00006F018FE0A99454805F040FB289A1C9920
:103DC0004A4805F03BFB4A483BF0BAF8494B002211
:103DD0001A6047483BF03CF828982AAB984200D13B
:103DE0003DE706F0FFFD3AE7349836AB984201D044
:103DF00006F0F8FD049806AB984201D006F0F2FDFB
:103E00002E9830AB984201D006F0ECFD05F0F6FD9F
:103E10003A983CAB984201D006F0E4FD0A980CAB0E
:103E20009842E7D006F0DEFDE4E7409842AB9842C6
:103E300001D006F0D7FD109812AB9842EED006F0F4
:103E4000D1FDEBE74C984EAB984201D006F0CAFD8D
:103E5000169818AB9842EED006F0C4FDEBE75298E6
:103E600054AB9842F4D006F0BDFDF1E7649866AB20
:103E7000984201D006F0B6FD1C981EAB9842E7D0E0
:103E800006F0B0FDE4E76A986CAB9842F4D006F017
:103E9000A9FDF1E7709872AB984201D006F0A2FD3F
:103EA000229824AB9842E7D006F09CFDE4E72898DE
:103EB0002AAB9842F4D006F095FDF1E7F0E776984A
:103EC00078AB9842D8D006F08DFDD5E70C1D0410D4
:103ED0001C1D04103C1D0410601D0410681D0410FE
:103EE000781D04109C1D0410BC1D0410D41D04106A
:103EF000A83D0020443D00207C987EAB984201D034
:103F000006F070FD229824AB9842B5D006F06AFD09
:103F1000B2E728982AAB9842F4D006F063FDF1E7A7
:103F2000F0E7829884AB9842A6D006F05BFDA3E749
:103F300028982AAB98429FD006F054FD9CE79BE757
:103F400086E778E76AE755E75AE7C0460200303867
:103F5000C0B209280ED91300413BDBB2052B07D9AB
:103F60001300613BDBB2052B05D8573AD0B201E014
:103F7000373AD0B27047FF20FCE7F8B505000C00D7
:103F80000CE06078FFF7E2FF0001C6B2E71CA07802
:103F9000FFF7DCFF36182E703C0001352378002B2C
:103FA0000CD0252BEDD02B2B03D001342B700135F9
:103FB000F4E70B3B2B7001340135EFE700232B7046
:103FC000F8BD000010B504000800002323700D495F
:103FD00031F080FD002814D001002000FFF7CDFF54
:103FE000200030F0F3FA20180622074905F088F87F
:103FF000200030F0EBFA24180249002031F06AFD6D
:10400000E8E710BD7C1E0410801E041070B504008B
:104010000D00012805D0002C02D1074B9D4207D08E
:1040200070BD054B9942F6D1044807F0AFF9F2E7AD
:10403000024807F0B9F9F3E7FFFF0000043500205C
:1040400070B582B004000B00019141688B4200D230
:104050000191266825000835B5421CD0A268019B55
:10406000934216D001D80F2B1DD901A92000FEF7CD
:10407000CBF80600216863685A1C012A0DD0002A7B
:104080000ED12068854201D006F0ACFC2660019B71
:10409000A36002B070BD0F22E1E70B780370F0E778
:1040A00005F02EF8EDE7B542F3D00131012906D035
:1040B000002907D1300006F095FC2560E9E7337848
:1040C0002372F7E70A003100280005F019F8F1E73C
:1040D00010B504000B68062B49D89B00294AD35819
:1040E0009F46030008330360274A11001A39002352
:1040F000FEF7A6F8200010BD030008330360234A32
:10410000110019390023FEF79BF8F3E70300083389
:1041100003601F4A110016390023FEF791F8E9E702
:104120000300083303601B4A110010390023FEF717
:1041300087F8DFE7030008330360174A11000F39DF
:104140000023FEF77DF8D5E7030008330360134A28
:1041500011000D390023FEF773F8CBE70300083395
:1041600003600F4A911F0023FEF76AF8C2E70300BD
:1041700008330360054A110019390023FEF760F87F
:10418000B8E7C046FC1D0410A21E0410BD1E04109A
:10419000D61E0410E81E0410FB1E0410091F041094
:1041A000121F0410F0B5C9B007000E0003A8FFF7F6
:1041B0008FFF09AB0BAA099200250A951D720FAC5F
:1041C00020A825F0FFF97C4B6364B423E550043349
:1041D000E5540133E5540333E5500433E55004332B
:1041E000E5500433E550754A53680F930C3B1B6848
:1041F0009268E25065600F9B0C3B18682018002104
:104200001AF074FF6E4B0F93143320936D4B119380
:10421000002412941394149415941694179418A8C7
:1042200007F004FE684B119319941CAB1A93039B7F
:1042300004998C4663441A00002303991AA8FDF7D9
:10424000FFFF082319931A990023002211A813F0E5
:104250007DFF11A920A81AF049FF2FE004001A9849
:104260001CAB984201D006F0BDFB564B119318A829
:1042700006F07EFC51494B680FAA0F930C3B1B685C
:104280008968D150002310934B4B209320A825F030
:10429000F1F909980BAB984201D006F0A3FB039803
:1042A00005AB984201D006F09DFB200006F0C8F94E
:1042B000464805F093F878E00400D6E7202209A9E3
:1042C0000FA807F0A1F806E0040011A8FDF710FD03
:1042D000D0E70400D8E70A9B0133049A591C0FD099
:1042E000002B06D0934200D21A00002103A8FDF74C
:1042F0006FFF039B099A3968354805F09FF804E081
:1043000000230493039A1370F3E73C68310042A83A
:10431000FFF7DEFE0023019300932E4B2E4A4299B5
:104320002000FDF7D3F9429844AB984201D006F043
:1043300059FB234B0F9314332093234B11931A985B
:104340001CAB984201D006F04DFB0FAC1D4B1193F6
:1043500018A806F00DFC194A53680F930C3B1B6814
:104360009268E25000236360134B636420A825F039
:1043700081F909980BAB984201D006F033FB039802
:1043800005AB984201D006F02DFB49B0F0BD04000A
:10439000429844AB984201D006F024FB0FA813F0DA
:1043A00003FD76E70400F9E780E706F085F9ECE71E
:1043B00006F082F905F022FB9CD0041088C204109C
:1043C000A4C204103CDC041028C20410701F0410A6
:1043D000141F0410A4150410641F0410F0B5CE4679
:1043E00000B582B0040001911500080030F0EEF82D
:1043F00006002700083727600023636023726B687C
:1044000019182000FFF71CFE0F4B62689B1A9E4292
:1044100005D8320001992000FFF736F809E00B4873
:1044200024F0D8FC2068874201D006F0DBFA05F0C2
:10443000E5FA29686A682000FFF726F8200002B034
:1044400004BC9146F0BDC046FFFFFF7FFC1704107F
:10445000F0B5CE46474680B5A7B005000F00160060
:104460000024062C00D9D7E02201814B9B189968C3
:104470003800FEF727FE002801D00134F1E72301C0
:104480007B4A9F58002F00D0ACE01A00784B9B1855
:10449000DF6806AB0493002F01D17A1E03E03800D9
:1044A00030F094F83A180023390004A8FDF7C8FE4C
:1044B00004AA704910A8FFF791FF6F4B119A9B1A3D
:1044C000112B05D912226D4910A8FEF7DDFF16E069
:1044D0006B4824F07FFC0400109812AB984201D086
:1044E00006F080FA049806AB984201D006F07AFAFA
:1044F000200006F0A5F8634804F070FFABE0070069
:104500000CAB0A9303680822914681444B453CD08A
:104510000A9383680C937B680B934B463B600023A4
:104520007B603B72049B0A9A0CA98A4238D006A988
:104530008B4230D00699884604920B9A05920C9AC9
:1045400003920692002B28D00A9343460C93002333
:104550000B930A9A13700A980CAB984201D006F09C
:1045600041FA109812AB984201D006F03BFA049F32
:10457000380030F02BF881462B68984606231C93B0
:104580001CA916A8FFF7A4FD0FE0083249460CA8A5
:1045900004F0B6FDBFE70023CEE70CAB0A93D6E7E5
:1045A0000AA904A8FEF754F9D1E72401304B1C19DD
:1045B000626801964B4600933B0016994046FDF712
:1045C00085F8169818AB984201D006F00BFA0498BB
:1045D00006AB984201D006F005FA27B00CBC904615
:1045E0009946F0BD2B6898460623239323A91DA85E
:1045F000FFF76EFD24011E4B1C196268E3680196EB
:1046000000971D994046FDF761F81D981FAB984231
:10461000E3D006F0E7F9E0E71B4804F0DFFE0523EE
:10462000249324A92800FFF7BDFDD6E704001698BF
:1046300018AB984200D155E706F0D4F952E70400D0
:1046400050E704001D981FAB984201D006F0CAF94C
:1046500020004EE74DE70123259325A92800FFF709
:10466000A1FD06F029F8B8E706F026F805F0C6F92E
:10467000849204109C1F0410FFFFFF7F342004105D
:10468000FC1704107020041048200410F0B5D64622
:104690004F4680B5DFB005000C00170004930026DC
:1046A000012E00D9DFE273009B199B00C84AD31882
:1046B00059682000FEF706FD002801D00136EFE71B
:1046C00073009B199B00C24AD3189C6809AB0793DF
:1046D000002C01D1621E03E020002FF077FF22188A
:1046E0000023210007A8FDF7ABFD002F00D159E101
:1046F00038002FF06BFF04F0C7FC0390002809D0AE
:1047000039000398FFF75EFC07AAB2492BA8FFF710
:1047100065FE03E005F09AFA0400CBE0AE4B2C9A5C
:104720009B1A022B05D90322AC492BA8FEF7ACFE3D
:1047300004E0AB4824F04EFB0400B5E0040027ABD6
:104740002593036807000837BB4216D0259383687A
:10475000279363682693276000236360237203987E
:104760002FF034FF020026999B4B5B1A83420AD339
:10477000039925A8FEF788FE0AE01022390027A831
:1047800004F0BEFCE5E7964824F024FB040085E035
:10479000040021AB1F93036807000837BB4213D006
:1047A0001F938368219363682093276000236360CD
:1047B0002372209A884B9B1A042B0BD90522894916
:1047C0001FA8FEF761FE0AE01022390021A804F0BC
:1047D00097FCE8E7824824F0FDFA040058E0040062
:1047E0001BAB1993036807000837BB4213D019931A
:1047F00083681B9363681A932760002363602372A6
:104800001A9A754B9B1A502B0BD95122764919A82D
:10481000FEF73AFE0AE0102239001BA804F070FCF3
:10482000E8E76F4824F0D6FA04002BE0040015AB4B
:104830001393036807000837BB4213D013938368B0
:104840001593636814932760002363602372149A9E
:10485000614B9B1A112B0BD91222644913A8FEF746
:1048600013FE34E01022390015A804F049FCE8E7F3
:104870005B4824F0AFFA0400139815AB984201D0BE
:1048800006F0B0F819981BAB984201D006F0AAF8D0
:104890001F9821AB984201D006F0A4F8259827ABC9
:1048A000984201D006F09EF82B982DAB984201D08B
:1048B00006F098F8079809AB984201D006F092F8F4
:1048C000200005F0BDFE4A4804F088FDDFE1040049
:1048D0000FAB0D93036807000837BB4252D00D930E
:1048E00083680F9363680E932760002363602372CD
:1048F000079B0D9A0FA98A424FD009A98B4247D036
:104900000999894607920E9A08920F9A0592099280
:10491000002B3FD00D934B460F9300230E930D9A1F
:1049200013700D980FAB984201D006F05BF8139806
:1049300015AB984201D006F055F819981BAB984278
:1049400001D006F04FF81F9821AB984201D006F035
:1049500049F8259827AB984201D006F043F82B98E8
:104960002DAB984201D006F03DF8079C20002FF0B7
:104970002DFE81462F6806235B935BA955A8FFF7A0
:10498000A7FB52E1102239000FA804F0B9FBA9E7F8
:104990000023B7E70FAB0D93BFE70DA907A8FDF7FD
:1049A00057FFBAE707AA0B494FA8FFF717FD0A4BB5
:1049B000509A9B1A022B05D9032208494FA8FEF7EB
:1049C00063FD17E0064824F005FA0400C5E0C04680
:1049D000F49204109C1F0410FFFFFF7F9820041026
:1049E000FC1704109C200410A42004103420041090
:1049F0000C21041004004BAB4993036807000837EF
:104A0000BB4213D0499383684B9363684A932760F2
:104A10000023636023724A9AA74B9B1A122B0BD96F
:104A20001322A64949A8FEF72FFD0AE010223900FB
:104A30004BA804F065FBE8E7A14824F0CBF904009B
:104A400085E0040045AB4393036807000837BB4289
:104A500013D043938368459363684493276000238E
:104A600063602372449A944B9B1A042B0BD9052242
:104A7000944943A8FEF708FD0AE01022390045A832
:104A800004F03EFBE8E78E4824F0A4F9040058E067
:104A900004003FAB3D93036807000837BB4213D0C7
:104AA0003D9383683F9363683E9327600023636070
:104AB00023723E9A804B9B1A502B0BD9512282496C
:104AC0003DA8FEF7E1FC0AE0102239003FA804F0FF
:104AD00017FBE8E77A4824F07DF904002BE0040096
:104AE00039AB3793036807000837BB4213D03793BD
:104AF0008368399363683893276000236360237267
:104B0000389A6D4B9B1A112B0BD912226F4937A87B
:104B1000FEF7BAFC29E01022390039A804F0F0FAB7
:104B2000E8E7674824F056F90400379839AB984213
:104B300001D005F057FF3D983FAB984201D005F0FA
:104B400051FF439845AB984201D005F04BFF49987F
:104B50004BAB984201D005F045FF4F9851AB9842BE
:104B600000D1A7E605F03EFFA4E6040033AB319385
:104B7000036807000837BB4247D0319383683393FB
:104B8000636832932760002363602372079B319A26
:104B900033A98A4244D009A98B423CD009998A465C
:104BA0000792329A0892339A05920992002B34D0D8
:104BB00031935346339300233293319A13703198D3
:104BC00033AB984201D005F00DFF379839AB9842CE
:104BD00001D005F007FF3D983FAB984201D005F0AA
:104BE00001FF439845AB984201D005F0FBFE499880
:104BF0004BAB984201D005F0F5FE4F9851AB98426F
:104C000000D1B2E605F0EEFEAFE61022390033A87F
:104C100004F076FAB4E70023C2E733AB3193CAE776
:104C200031A907A8FDF714FEC5E773009B199B0087
:104C3000274A9A58049B01934B46009323005599A9
:104C40003800FCF743FD559857AB984201D005F06A
:104C5000C9FE039804F036FA079809AB984221D0B0
:104C600005F0C0FE1EE01B4804F0B8FB05235C9372
:104C70005CA92800FFF796FA11E00400559857AB9D
:104C8000984200D116E605F0ADFE13E619E60123C1
:104C90005D935DA92800FFF785FA05F00DFD0398E7
:104CA00004F010FA5FB00CBC91469A46F0BD05F0D6
:104CB00003FD04F0A3FEC046FFFFFF7FF8200410B1
:104CC000FC1704109C200410A420041034200410AD
:104CD000F492041048200410F0B5A9B007000C00AD
:104CE00016001D0017AB15930B6849688C4663448A
:104CF0001A000023216815A8FEF754F915AB00939C
:104D000000232022002103A8FDF7DAFD159817AB38
:104D1000984201D005F066FE1DAB1B9323686168C5
:104D20008C4663441A00002321681BA8FEF73AF959
:104D30001BAB009300232022012109A8FDF7C0FD31
:104D40001B981DAB984201D005F04CFE23AB21937C
:104D5000216862688A18002321A8FEF723F921AB95
:104D600000930023202202210FA8FDF7A9FD21981E
:104D700023AB984201D005F035FE0F9B0093099BB1
:104D8000039A39683A4804F059FB039C39492000DA
:104D90002FF0B0FD002806D02B00320009A9380002
:104DA000FFF774FC11E0344920002FF0A3FD002828
:104DB00005D02A0009A93800FFF74AFB05E00223C5
:104DC000279327A93800FFF7EDF90F9811AB984208
:104DD00001D005F007FE09980BAB984201D005F011
:104DE00001FE039805AB984201D005F0FBFD29B008
:104DF000F0BD0400159817AB984201D005F0F2FD04
:104E0000200005F01DFC1D4804F0E8FA29E004002C
:104E10001B981DAB984201D005F0E4FD039805AB4B
:104E2000984201D005F0DEFD2000EAE70400219859
:104E300023AB984201D005F0D5FD09980BAB984201
:104E4000ECD005F0CFFDE9E704000F9811AB9842D4
:104E5000F3D005F0C7FDF0E70400EEE70400DDE75E
:104E6000CFE705F029FCC2E705F026FC04F0C6FDFB
:104E7000181E0410CC1C0410C81C04104C1E041076
:104E800010B502490120FFF7C1F810BDFFFF000077
:104E900070B50D00140013000A0001001E4804F054
:104EA000CDFA1FE0D0231B06802252059A61802292
:104EB000D2045A61280000F0F5FED0231B068022A0
:104EC000D2049A61802252035A61280000F0EAFE5F
:104ED000D0231B06802252039A61012C16D0002C8D
:104EE00000DD013C0D4B1B68002B0FD0D0231B06AF
:104EF000802252055A61280000F0D4FED2E705F066
:104F00009FFB074804F06AFA05F0D6FB70BD05F078
:104F1000D3FB04F073FDC046509E0410443D0020B6
:104F2000BC17041030B5A1B0624801F04EF88FE014
:104F30002FF04CFB22180023210002A8FDF780F976
:104F400004F09CFB0400012000F0ACFE5A4902A8CA
:104F5000FEF7B8F8002805D0584902A8FEF7B2F8C5
:104F6000002803D1534839F0EBFF05E0012200236C
:104F7000012004F037FB65E0514B01221A604D48D7
:104F800039F066FF01220023012004F02BFB16AB51
:104F90001493002C01D1621E03E020002FF016FBB9
:104FA00022180023210014A8FDF74AF914AB00933E
:104FB00000232022002108A8FDF782FC149816ABDC
:104FC000984201D005F00EFD1CAB1A93002C01D1C4
:104FD000621E03E020002FF0F9FA221800232100BE
:104FE0001AA8FDF72DF91AAB009300232022012106
:104FF0000EA8FDF765FC1A981CAB984201D005F08D
:10500000F1FC08982BF07AFF04000E982BF076FF45
:10501000020021002800FFF73BFF264839F090FFEF
:10502000274B00221A60234839F012FF0E9810AB6C
:10503000984201D005F0D6FC08980AAB984201D0FE
:1050400005F0D0FC029804AB984201D005F0CAFCF0
:1050500004F014FB050004F011FB040004AB029300
:10506000002800D064E7421E65E7149816AB98420A
:1050700001D005F0B7FC029804AB984201D005F0CE
:10508000B1FC04F0BBFC1A981CAB984201D005F0AF
:10509000A9FC08980AAB9842EDD005F0A3FCEAE71A
:1050A0000E9810AB9842F4D005F09CFCF1E7F0E7C5
:1050B000E1E7C046A83D0020081D0410381D04107B
:1050C000443D002010B58300084A944663441C68A0
:1050D00040226240C02414408022520113431C60CD
:1050E000C000034B9C466044416010BD04C00140B9
:1050F0000040014080000B4B9C46604400290DD0CD
:105100000823002A0CD100221343026853400C22CA
:105110001340802252011043036070470023F0E7E0
:105120000422F1E704C0014010B501238340D022DE
:105130001206936293610521FFF7C4FF10BD0000C2
:10514000EFF3108072B6034B1B68002BFBD0BFF34C
:105150005F8F70472C0100D0BFF35F8F024B00229E
:105160001A6080F3108870472C0100D070B50500DC
:105170000E001400FFF7E4FFF208AA1815780721C3
:10518000314001238B402B4205D1DBB22B431370FE
:10519000FFF7E2FF70BD3100200001F0DDF90000F3
:1051A000034B1B6802201840431E9841C0B2704751
:1051B00000C00640002307E0054A9A189200BFF39A
:1051C0005F8F0021116001331F2BF5D97047C04656
:1051D00040000034054A1078431CDBB21370172BD3
:1051E00002D9130010221A707047C046BC1100206B
:1051F00070B505000C00062001F0C4FAC0002100C3
:1052000002F0F8FEC60908D00E4B9E4217D87F2345
:10521000184001303400460800E001246C62AE62A0
:105220002C3580239B011D4300232B60062001F0B9
:10523000A9FA8000A101891902F0DCFE70BD0026E8
:10524000014CEBE7FEFF0000FFFF000000290AD140
:1052500080225200054B9C46604443425841400026
:10526000034BC25270470A22F4E7C0460080FCBFDD
:10527000E047002070B505000C00062001F082FA1E
:1052800000282DD0174B9D4227D08022D203164BE9
:105290001A60164B1A60164B9B6811009943FAD19D
:1052A00000212800FFF7D2FF21002800FFF7A0FF10
:1052B0002C002C34E96A60224A406E211140802281
:1052C0005201224311600B4B2B6380239B0123432C
:1052D00010221A600323AB6470BD80221204D6E74B
:1052E0000020F9E70080034000E0004000F00040AB
:1052F00000C000400103000070B505000C0008006C
:1053000000F020FD200000F029FE0849200000F0F8
:1053100069FDFFF75FFF064B9C46604480006860B4
:105320002C75A400034BE55070BDC04645560010D7
:1053300040000034B03D00200A4B1A68EFF31081A2
:1053400072B61368002BFCD0BFF35F8F054B1B6850
:10535000BFF35F8F00221A6081F3108840BF0020E6
:1053600000217047C045002010B5002922D00368F5
:105370001B7B99421ED8174B9C46614409018368E8
:105380009C4661440C684968002A19D003681B7B5D
:105390009A4215D883680F488446624412019A18CD
:1053A00010685368020001208B4201D80ED0002003
:1053B000C0B210BD084B094A3B21094801F0AEF8C4
:1053C000054B064A3B21064801F0A8F8A242EFD857
:1053D000EDE7C046FFFFFF0FE89F0410D09E0410CA
:1053E000F0A0041010B500291FD0037B99421CD8EF
:1053F0004B005B18033B0468A446634400291AD0A1
:10540000002A1ED0914222D0002A26D0047BA2423C
:1054100023D8046850008018033820188170197848
:10542000002920D041701A7010BD104B104A69211C
:10543000104801F073F8104B104A70310D4801F01C
:105440006DF80F4B0D4A71210A4801F067F80D4BBA
:105450000A4A7221074801F061F8044B044A6921A5
:10546000044801F05BF81A70DEE7C04648A004105B
:10547000909E041064A00410ACA004109C9E041024
:10548000B8A00410C4A0041070B506000D001400EC
:1054900000290BD0002A12D0806873689847002832
:1054A00006D12A0021003000FFF79CFF200070BDCC
:1054B000220029003000FFF795FF2C00F6E70C00D2
:1054C000F4E7000070B5CE4600B583B00500009249
:1054D00001930AAB1C780BAB1B789946002C28D0A3
:1054E00003685A7B944209D10123002B1BD1002C65
:1054F0003DD1200003B004BC914670BD002C0CD0FF
:105500001A7B944209D81A6863001B19033BD3180D
:105510009B78002BE9D00123E7E73F4B3F4A692105
:105520003F4800F0FBFF3F4B3F4A65213F4800F0FA
:10553000F5FF03689C7B002CD9D012D01A7B9442D3
:105540000FD862001219033A19688C4662445178E8
:105550009973002900D1D97300239370537013708D
:10556000C5E72D4B2D4A69212D4800F0D7FF002CAF
:105570003BD02B681B7B9C4237D82D4BE3181B017B
:10558000AA68944663440099019A19605A60089A7F
:105590009A60099ADA602E68002C2CD031D0337BC7
:1055A0009C422ED863001B19033B32689446634427
:1055B00000229A705A701A70717B22003000FFF737
:1055C00063FF7073844200D093E7287D009A019BAB
:1055D00000F050FC061E02D04B46002B17D00C9B4F
:1055E000002B00D185E71E7083E7124B124A3B2146
:1055F0000E4800F093FF114B114AA621084800F015
:105600008DFF054B054A6921054800F087FF286892
:10561000210000F079FEE2E748A00410909E0410FB
:1056200064A004103C9F0410089F0410F0A0041014
:10563000FFFFFF0FE89F0410D09E0410ECA00410A1
:10564000B09E0410F0B5DE4657464E464546E0B5DE
:105650008BB009908200BA4BD7583D00A3E0B94BFC
:10566000B94A3D21B94800F059FFB94BB94A3B212D
:10567000B94800F053FF002B02D1002A00D0BCE053
:105680000021604600F036FEA04219D132687368EE
:1056900006920793B3689946F3689A464B46002BE7
:1056A00014D0002C18D02B681B7B9C4214D8631E8E
:1056B000EA68D35C08931B02184328610020A4E029
:1056C000A64BA74A8C21A44800F028FFA54BA44A6A
:1056D0009021A14800F022FF9D4BA34A40219E4803
:1056E00000F01CFF00239A46994600208DE02B69AC
:1056F000002B00D1A9E043451CD1069A079B10005E
:105700001900921BBB41994202D804D1904202D9A0
:1057100001225242D317002B12DB002104910131E8
:105720000391029451460191494600912800FFF7E8
:10573000C9FE30E08D4B8A4A9F21874800F0EEFE7B
:10574000804B814A3D21814800F0E8FE002F02D1C4
:10575000002E00D07CE02A68002C00D1C7E0537BEB
:105760009C4200D0ACE00123002B00D0BFE0D37BF3
:10577000002B00D0C1E0D473002C00D1D0E02B6806
:105780001B7B9C4200D9CBE0013CEB689C46644407
:1057900023780133237000232B616A68BFF35F8F86
:1057A00013608BF3108800F0D9FA002900DA56E76D
:1057B00000230024069307946A68EFF3108772B6FB
:1057C0001368002BFCD0BFF35F8F2B689C465C7B7B
:1057D000002C87D000D148E71B7B9C4200D944E7CE
:1057E000634BE6183601AB689846464432687368E6
:1057F000121A8B41002B00DC3DE732687368099870
:1058000000F038FB00239A4699466B68BFF35F8F20
:1058100000221A6087F310884B46002B00D185E0E8
:10582000089B1B022343984651461800C8470600B0
:105830000F006A68EFF3108B72B61368002BFCD070
:10584000BFF35F8F002F00DA51E7002F00DC7DE708
:105850002B69002B00D17EE743451FD100F07EFA73
:1058600002000B1E20DB0100180092197B419842B8
:1058700002D804D1914202D901225242D317002BFF
:1058800018DB0021049101310391029451460191EA
:10589000494600912800FFF715FE7CE7334B304A5C
:1058A000A2212D4800F03AFE264B274A3D212748E9
:1058B00000F034FE234B244A3D21244800F02EFE04
:1058C000002C0ED0137B9C420BD863001B19033BAA
:1058D00011688C4663449B78002B00D144E7012378
:1058E00042E7244B244A6921244800F017FE244B48
:1058F000244AF721214800F011FE002B0AD0117B29
:105900008B4207D85900CB18033B11688C4663447F
:105910005C7030E7174B184A6921184800F0FEFD0B
:105920000B4B114A40210C4800F0F8FD002800D034
:1059300039E70BB03CBC90469946A246AB46F0BD59
:10594000B03D002010150410789E04102C15041092
:10595000E89F0410D09E0410F0A00410649F04106F
:10596000209F04107C9F0410DC9E0410889F04106C
:10597000FFFFFF0F48A00410909E041064A00410C5
:10598000C49F0410C09E041010B50A4B5B68002B26
:1059900004D00A21084800F001FB10BD054C23008B
:1059A000064A1021206800F0C3FB03212000FFF706
:1059B000A3FCEEE7C0110020C04500206953001091
:1059C00010B5064B5B68002B01D0044810BD044B9A
:1059D000044A5C21044800F0A1FDC046C01100202B
:1059E0001CA00410F09E0410F0A00410F0B5DE46D8
:1059F00057464E464546E0B589B0804616001F0022
:105A0000129B994614AB1B789A461F236B440022C5
:105A10001A7033E000280AD042461268127B904286
:105A200005D8421E4146C9688A5C934646E0434B0E
:105A3000434A4021434800F071FD32003B00361BD1
:105A4000AF41BB4202D804D1B24202D9012676420C
:105A5000F717002F12DA3C4B3C4A3D213C4800F03E
:105A60005DFD394B394A3D21394800F057FD01248D
:105A70006442E517002D4EDB26002F0043465B688D
:105A8000EFF3108572B61C6862425441E4B2002CF8
:105A9000F9D1BFF35F8F1F236B440493002303935B
:105AA0000293139B01934B46009332003B00404608
:105AB000FFF708FD031EADD1002293464146496819
:105AC000BFF35F8F00220A6085F31088002B28D077
:105AD0001F236B441B78002B02D15A461402044347
